{
  "contractName": "Auth",
  "abi": [
    {
      "anonymous": false,
      "inputs": [
        {
          "indexed": false,
          "internalType": "string",
          "name": "username",
          "type": "string"
        },
        {
          "indexed": false,
          "internalType": "string",
          "name": "email",
          "type": "string"
        },
        {
          "indexed": false,
          "internalType": "string",
          "name": "password",
          "type": "string"
        },
        {
          "indexed": false,
          "internalType": "string",
          "name": "phone",
          "type": "string"
        }
      ],
      "name": "userCreated",
      "type": "event"
    },
    {
      "inputs": [],
      "name": "userCount",
      "outputs": [
        {
          "internalType": "uint256",
          "name": "",
          "type": "uint256"
        }
      ],
      "stateMutability": "view",
      "type": "function",
      "constant": true
    },
    {
      "inputs": [
        {
          "internalType": "string",
          "name": "",
          "type": "string"
        }
      ],
      "name": "usersList",
      "outputs": [
        {
          "internalType": "string",
          "name": "username",
          "type": "string"
        },
        {
          "internalType": "string",
          "name": "email",
          "type": "string"
        },
        {
          "internalType": "string",
          "name": "password",
          "type": "string"
        },
        {
          "internalType": "string",
          "name": "phone",
          "type": "string"
        }
      ],
      "stateMutability": "view",
      "type": "function",
      "constant": true
    },
    {
      "inputs": [
        {
          "internalType": "string",
          "name": "_username",
          "type": "string"
        },
        {
          "internalType": "string",
          "name": "_email",
          "type": "string"
        },
        {
          "internalType": "string",
          "name": "_password",
          "type": "string"
        },
        {
          "internalType": "string",
          "name": "_phone",
          "type": "string"
        }
      ],
      "name": "createUser",
      "outputs": [],
      "stateMutability": "nonpayable",
      "type": "function"
    }
  ],
  "bytecode": "0x60806040526000805534801561001457600080fd5b506109cb806100246000396000f3fe608060405234801561001057600080fd5b50600436106100415760003560e01c806307973ccf146100465780634cbce6ac146100645780636f7fcddb14610097575b600080fd5b61004e6100b3565b60405161005b91906104eb565b60405180910390f35b61007e60048036038101906100799190610660565b6100b9565b60405161008e9493929190610731565b60405180910390f35b6100b160048036038101906100ac9190610792565b61031f565b005b60005481565b6001818051602081018201805184825260208301602085012081835280955050505050506000915090508060000180546100f290610898565b80601f016020809104026020016040519081016040528092919081815260200182805461011e90610898565b801561016b5780601f106101405761010080835404028352916020019161016b565b820191906000526020600020905b81548152906001019060200180831161014e57829003601f168201915b50505050509080600101805461018090610898565b80601f01602080910402602001604051908101604052809291908181526020018280546101ac90610898565b80156101f95780601f106101ce576101008083540402835291602001916101f9565b820191906000526020600020905b8154815290600101906020018083116101dc57829003601f168201915b50505050509080600201805461020e90610898565b80601f016020809104026020016040519081016040528092919081815260200182805461023a90610898565b80156102875780601f1061025c57610100808354040283529160200191610287565b820191906000526020600020905b81548152906001019060200180831161026a57829003601f168201915b50505050509080600301805461029c90610898565b80601f01602080910402602001604051908101604052809291908181526020018280546102c890610898565b80156103155780601f106102ea57610100808354040283529160200191610315565b820191906000526020600020905b8154815290600101906020018083116102f857829003601f168201915b5050505050905084565b600080815480929190610331906108f9565b9190505550604051806080016040528085815260200184815260200183815260200182815250600184604051610367919061097e565b9081526020016040518091039020600082015181600001908051906020019061039192919061042f565b5060208201518160010190805190602001906103ae92919061042f565b5060408201518160020190805190602001906103cb92919061042f565b5060608201518160030190805190602001906103e892919061042f565b509050507f2f41e0cd6bdaeefa07c19fdeb8877382f42bebe51754c35e5543d87a7a7145cb848484846040516104219493929190610731565b60405180910390a150505050565b82805461043b90610898565b90600052602060002090601f01602090048101928261045d57600085556104a4565b82601f1061047657805160ff19168380011785556104a4565b828001600101855582156104a4579182015b828111156104a3578251825591602001919060010190610488565b5b5090506104b191906104b5565b5090565b5b808211156104ce5760008160009055506001016104b6565b5090565b6000819050919050565b6104e5816104d2565b82525050565b600060208201905061050060008301846104dc565b92915050565b6000604051905090565b600080fd5b600080fd5b600080fd5b600080fd5b6000601f19601f8301169050919050565b7f4e487b7100000000000000000000000000000000000000000000000000000000600052604160045260246000fd5b61056d82610524565b810181811067ffffffffffffffff8211171561058c5761058b610535565b5b80604052505050565b600061059f610506565b90506105ab8282610564565b919050565b600067ffffffffffffffff8211156105cb576105ca610535565b5b6105d482610524565b9050602081019050919050565b82818337600083830152505050565b60006106036105fe846105b0565b610595565b90508281526020810184848401111561061f5761061e61051f565b5b61062a8482856105e1565b509392505050565b600082601f8301126106475761064661051a565b5b81356106578482602086016105f0565b91505092915050565b60006020828403121561067657610675610510565b5b600082013567ffffffffffffffff81111561069457610693610515565b5b6106a084828501610632565b91505092915050565b600081519050919050565b600082825260208201905092915050565b60005b838110156106e35780820151818401526020810190506106c8565b838111156106f2576000848401525b50505050565b6000610703826106a9565b61070d81856106b4565b935061071d8185602086016106c5565b61072681610524565b840191505092915050565b6000608082019050818103600083015261074b81876106f8565b9050818103602083015261075f81866106f8565b9050818103604083015261077381856106f8565b9050818103606083015261078781846106f8565b905095945050505050565b600080600080608085870312156107ac576107ab610510565b5b600085013567ffffffffffffffff8111156107ca576107c9610515565b5b6107d687828801610632565b945050602085013567ffffffffffffffff8111156107f7576107f6610515565b5b61080387828801610632565b935050604085013567ffffffffffffffff81111561082457610823610515565b5b61083087828801610632565b925050606085013567ffffffffffffffff81111561085157610850610515565b5b61085d87828801610632565b91505092959194509250565b7f4e487b7100000000000000000000000000000000000000000000000000000000600052602260045260246000fd5b600060028204905060018216806108b057607f821691505b602082108114156108c4576108c3610869565b5b50919050565b7f4e487b7100000000000000000000000000000000000000000000000000000000600052601160045260246000fd5b6000610904826104d2565b91507fffffffffffffffffffffffffffffffffffffffffffffffffffffffffffffffff821415610937576109366108ca565b5b600182019050919050565b600081905092915050565b6000610958826106a9565b6109628185610942565b93506109728185602086016106c5565b80840191505092915050565b600061098a828461094d565b91508190509291505056fea2646970667358221220de05a12281d8b6f461cf30b5c80f378cb3391671ac0111a28592fe6dfdf159c364736f6c634300080c0033",
  "immutableReferences": {},
  "source": "// SPDX-License-Identifier: MIT\npragma solidity >=0.4.22 <0.9.0;\n\ncontract Auth{\n    \n    uint public userCount=0;\n\n    mapping(string => user) public usersList;\n\n     struct user{\n      string username;\n      string email;\n      string password;\n      string phone;\n  }\n\n   // events\n\n   event userCreated(\n      string username,\n      string email,\n      string password,\n      string phone\n    );\n\n  function createUser(string memory _username,string memory _email,string memory _password,string memory _phone) public {\n      \n        userCount++;\n\n        usersList[_email] = user(_username,_email,_password,_phone);\n      \n        emit userCreated(_username,_email,_password,_phone);\n    }\n\n\n}",
  "sourcePath": "C:\\Real Work\\EGCO\\Capstone\\JSAuthenWeb3_00\\web3authen\\src\\contracts\\Auth.sol",
  "compiler": {
    "name": "solc",
    "version": "0.8.12+commit.f00d7308.Emscripten.clang"
  },
  "schemaVersion": "3.4.14",
  "updatedAt": "2023-07-09T16:11:23.559Z",
  "networkType": "ethereum",
  "devdoc": {
    "kind": "dev",
    "methods": {},
    "version": 1
  },
  "userdoc": {
    "kind": "user",
    "methods": {},
    "version": 1
  }
}